:02000004080AE8
:1000000000000A08A02D0A080000060006000501ED
:0800100004027C050000000061
:04001800B8280A08F2
:1000200009480A4908B5884205D0094A824202D0E7
:10003000121A02F0E1FB0748074A0021121A02F0E7
:10004000E6FB064808BD00BF00000020F42C0A08AB
:1000500084000020840000203403002034030020AA
:1000600070B501F037FB074B074C1E46E41AA40895
:100070000025A54204D056F8253098470135F8E709
:1000800070BD00BFB42C0A08E82C0A0800F034B890
:1000900008B500F019F9BDE8084001F0DDBA00F03C
:1000A00067BB00F06DBB0078B0FA80F04009704784
:1000B000012303707047000038B5064D002404F199
:1000C00050002844103C01F04EF814F1600FF6D1B6
:1000D00038BD00BF4001002038B5064D002404F1B2
:1000E00050002844103C01F03EF814F1600FF6D1A6
:1000F00038BD00BF9000002038B50A4D002435F807
:1001000014000021013401F035FB062CF7D1064D17
:10011000002435F814000321013401F02BFB062CD8
:10012000F7D138BD100000200400002010B502F007
:10013000AFF9094B4FF00104186002F029FB0028C9
:10014000B8BF404202F05AFA044B196802F0F8FABC
:1001500000B90446E0B210BD880000200000002075
:1001600038B5046805467CB16368013B63605BB9E0
:10017000236820469B689847A368013BA3601BB98E
:1001800023682046DB689847284638BD00000000F9
:100190002DE9F0470FF29809D9E90089264F8CB074
:1001A00000240026254B264D185B01F007FB02F0CA
:1001B00025FA286001F02AFE00220023CDE902235F
:1001C000CDE90467CDE9008900F002FB02F00CF9EB
:1001D000DFF87CA028605AF81410FFF7A7FFF8B9E1
:1001E0002868184B4AF8140053F834A001F00EFEAA
:1001F00002460B4608A8144901F010F8134B089A60
:100200001B7851468DF8003006A80A2300F08CFCBC
:1002100007A8FFF7A5FF08A800F0A5FF00232B60A3
:1002200002340C2CBED10CB0BDE8F087AFF30080D7
:100230000000000000FEAF400000F03F1000002072
:100240008C00002090000020CC280A08F00000203C
:10025000F4000020F0B5154D154F2E4685B0002452
:10026000385B01F098FA134B286053F81420904241
:1002700014D043F81400104A104B012852F83410DF
:100280001B780CBF0E4A0F4A02A812688DF8003086
:100290000A2300F049FC03A8FFF762FF02340023A1
:1002A0000C2C3360DCD105B0F0BD00BF1C01002078
:1002B00004000020A001002040010020F0000020E8
:1002C000300100202001002008B500F0E9F918B144
:1002D000FFF75EFFFFF7BEFFBDE808404FF47A70FE
:1002E00000F0AABA70B5364B364C01221A70364D62
:1002F00000F0B0F8354E3649204600F07BFF20462E
:10030000344C2A46314601F0CBFA3349204600F0FE
:1003100071FF324904F1100000F06CFF304904F124
:10032000200000F067FF2F4904F1300000F062FF69
:100330002D4904F1400000F05DFF2C4904F150000C
:100340002B4C00F057FF2A462A49002001F0A8FA5A
:100350002949204600F04EFF284904F1100000F022
:1003600049FF274904F1200000F044FF254904F12A
:10037000300000F03FFF244904F1400000F03AFF54
:10038000224904F15000224C00F034FF2A46214952
:10039000002001F085FA2049204600F02BFF20467E
:1003A0001E4C2A46314601F07BFA1D49204600F0DA
:1003B00021FF2A4631462046BDE8704001F070BA60
:1003C000F00000200C0100208400002067110A08C2
:1003D000D1280A0890000020D6280A08EF280A0829
:1003E00008290A0821290A083A290A0853290A086B
:1003F00040010020D9000A086C290A0886290A0849
:10040000A0290A08BA290A08D4290A08EE290A08E4
:1004100020010020B9000A08082A0A08300100203B
:100420000C2A0A0808B5024B1B681B6B019308BD18
:10043000D001060808B5024B1B685B68019308BD34
:100440009C01060808B5024B1B685B69019308BD57
:100450009C01060808B5024B1B681B68019308BD88
:10046000B001060808B5024B1B685B68019308BD24
:10047000B001060808B5024B1B689B68019308BDD4
:10048000B001060808B5024B1B68DB68019308BD84
:10049000B001060808B5024B1B685B69019308BDF3
:1004A000B001060808B5024B1B681B6B019308BD21
:1004B000B001060808B5024B1B681B6E019308BD0E
:1004C000AC01060808B5024B1B685B6E019308BDC2
:1004D000AC01060808B5024B1B689B6E019308BD72
:1004E000AC01060808B5024B1B68DB6E019308BD22
:1004F000AC01060808B5024B1B681B6F019308BDD1
:10050000AC01060808B5024B1B685B6F019308BD80
:10051000AC01060808B5034B1B68D3F88030019383
:1005200008BD0000AC01060808B5024B1B68DB697A
:10053000019308BDB401060808B5024B1B681B6A8D
:10054000019308BDB401060808B5024B1B689B69FE
:10055000019308BDC401060808B5024B1B685B6A1D
:10056000019308BDC401060808B5024B1B689B6ACD
:10057000019308BDC401060808B5024B1B68DB6A7D
:10058000019308BDC401060808B5024B1B681B6B2C
:10059000019308BDC401060808B5024B1B685B6BDC
:1005A000019308BDC401060808B5024B1B689B6B8C
:1005B000019308BDC401060808B5024B1B681B6CFB
:1005C000019308BDC401060808B5024B1B681B68EF
:1005D000019308BDD801060808B5024B1B681B69CA
:1005E000019308BDD801060808B5024B1B685B697A
:1005F000019308BDD801060808B5024B1B689B692A
:10060000019308BDD801060808B5024B1B68DB69D9
:10061000019308BDD801060808B5024B1B681B6A88
:10062000019308BDD801060808B5024B1B689B6CF6
:10063000019308BDC001060808B5024B1B685B6842
:10064000019308BDA401060808B5024B1B685B694D
:10065000019308BDA401060808B5024B1B68DB6CBA
:10066000019308BDA401060808B5024B1B685B6D29
:10067000019308BDA401060808B5034B1B68D3F815
:100680009030019308BD0000A401060808B5034B93
:100690001B68D3F89C30019308BD0000A401060834
:1006A00008B5024B1B685B69019308BDCC010608C5
:1006B00008B5024B1B681B6A019308BDCC010608F4
:1006C00008B5024B1B68DB6B019308BDCC01060823
:1006D00008B5024B1B685B68019308BDC80106089A
:1006E00008B5024B1B689B68019308BDC80106084A
:1006F00008B5024B1B68DB68019308BDC8010608FA
:1007000008B5024B1B681B69019308BDC8010608A8
:1007100008B5024B1B685B69019308BDC801060858
:1007200008B5024B1B689B69019308BDC801060808
:1007300008B5024B1B68DB69019308BDC8010608B8
:1007400008B5024B1B681B6A019308BDC801060867
:1007500008B5024B1B681B6B019308BDC801060856
:1007600008B5024B1B685B6B019308BDC801060806
:1007700008B5024B1B681B68019308BDA001060861
:1007800008B5024B1B685B68019308BDA001060811
:1007900008B5024B1B689B68019308BDA0010608C1
:1007A00008B5024B1B685B6A019308BDA0010608EF
:1007B00008B5024B1B68DB6A019308BDA00106085F
:1007C00008B5024B1B681B6B019308BDA00106080E
:1007D000F8B504460D46DDE9060116461F4601F050
:1007E000D1FD30BB32463B462046294601F0AEF9EA
:1007F000DDE9082304460D46DDE90A0101F0A6F90A
:1008000002460B462046294601F054FB3246044678
:100810000D46DDE906013B4601F098F902460B461C
:100820002046294601F070FCDDE9082301F090F92B
:10083000F8BD20462946F8BD0021FFF705BF10B5D9
:10084000836804460BB901F032F8C3689847A3687F
:100850001BB103222146204698472046BDE81040A0
:10086000102101F022B870470020704710B50446EF
:10087000102101F01AF8204610BD08B508B1FFF7A5
:10088000F5FF08BD10B58368044613B10322014685
:100890009847204610BD002202604FF69C7282806D
:1008A00010B5B1F9044084808A8002680C68046045
:1008B0000A6010BD10B504460068FFF761FF2046CE
:1008C00010BD38B5C468F4B12378022B03D104F10C
:1008D0000C00FFF7EFFF656835B12846FFF7D2FF40
:1008E0001021284600F0E1FFA56835B12846FFF742
:1008F000C9FF1021284600F0D8FF2046BDE8384047
:10090000142100F0D2BF38BD13B5044691E80500AC
:1009100000234B600B602060626001A8019300938C
:10092000FFF71EFC204602B010BD0B68036013B138
:100930005A6801325A607047F7B50C4606460F46B2
:1009400054F8043B02AD45F8083D214601A8FFF7E5
:10095000ECFF29463046FFF7D7FF01A8FFF700FC60
:100960002046FFF7FDFB3846082100F09EFF304689
:1009700003B0F0BD13B50B46044603C88DE8030071
:1009800093E8030084E803009DE8030083E8030084
:1009900002B010BD38B500230446036010200D4698
:1009A000FFF77DFB28B1012343608360024BC560E4
:1009B00003602060204638BD182A0A08826810B5F6
:1009C0000AB900F074FFC368BDE81040184708B5C5
:1009D000006800F11001FFF7F1FF08BD826810B553
:1009E0000AB900F064FFC368BDE81040184708B5B5
:1009F000006800F11001FFF7F1FF08BD38B50023D2
:100A000083608B6804460D462BB102229847EB6841
:100A1000E360AB68A360204638BD0000F0B589B044
:100A200004686846FFF737FF4FF0020200238DF895
:100A30000830D4E84F3F002B03D1C4E8412F0029F0
:100A4000F7D102D08DF8083063E014F10C0503D023
:100A500069462846FFF71FFFBFF35F8F01236370CE
:100A6000BFF35F8F04F10803002053E8006F43E8F1
:100A70000002002AF9D1BFF35F8F002E49D0FFF7A3
:100A8000EBFD20B129463046FFF798FF3AE03146AA
:100A900002A8FFF7B3FFE068B4F9105008B101F005
:100AA000E7FE06901020ADF81C50FFF7F8FA054657
:100AB000E8B1002787601820FFF7F1FA044688B1F3
:100AC0000146876002A8FFF755FF049BA268A36058
:100AD000059B0492E26806A9E36004F11000059208
:100AE000FFF7D9FE0D4B2C60EB600D4BAB6006A8F9
:100AF000FFF7E0FE02A8FFF7C5FE002229460948DD
:100B0000FFF7B2FD3046FFF7BDFE1021304600F082
:100B1000CCFE6846FFF7CEFE09B0F0BDCF090A084B
:100B2000450C0A083F080A082DE9F04F8BB006462D
:100B30000F46904699469DF850A0FFF7B1FD07ADCE
:100B4000834630BB4FF62E73059005A92846ADF8B5
:100B50001830FFF7A0FE1420FFF7A1FA044658B1A1
:100B60000223037001234370C0F804B0C0F808B03A
:100B700029460C30FFF78FFE3046214640F8044BE3
:100B8000FFF708FF2846FFF795FE05A8FFF792FE3E
:100B900052E000240C2314206C60AC600793FFF734
:100BA0007EFA014618B1047044704460846004A861
:100BB0000391FFF7EFFE224B08200893FFF76FFA2F
:100BC000044628B1039B04A940F8043BFFF7ADFE9F
:100BD00000955FFA8AF34A46414638460994FFF782
:100BE00067FD20B9039B5B7803F0FF0283B1039B91
:100BF00004A906A80593FFF798FE05A93046FFF75C
:100C000083FE06A8FFF7ACFA04A8FFF7A9FA13E0E1
:100C10004FF69C7305A903A80592ADF81830FFF7AD
:100C2000FDFE05A8FFF746FE05A80999FFF784FE1B
:100C300006A8FFF795FADAE730460BB0BDE8F08F6B
:100C4000B50D0A08022AF8B5044606D0032A17D0C3
:100C5000012A22D10B6803601FE018200E68FFF7FD
:100C60001EFA054650B13146FFF7C8FE3069B6F9A5
:100C7000147008B101F0FCFD2861AF8225600CE022
:100C8000046854B104F11000FFF714FE2046FFF78A
:100C9000F9FD1821204600F008FE0020F8BD38B507
:100CA000002383608B6804460D462BB102229847CF
:100CB000EB68E360AB68A360204638BD022A70B5DC
:100CC000044606D0032A11D0012A18D10B6803600C
:100CD00015E014200E68FFF7E2F9054620B1314611
:100CE000FFF7DDFF337C2B74256008E0046834B126
:100CF0002046FFF7C7FD1421204600F0D6FD002056
:100D000070BD0000F0B50C46BFF35F8F87B00023C5
:100D100050E8006F40E80032002AF9D1BFF35F8F3E
:100D2000002E3FD01846FFF797FC074620B121461A
:100D30003046FFF753FE2EE0314601A8FFF7AFFF24
:100D4000237810208DF81430FFF7A9F90546D0B1AB
:100D500087601420FFF7A3F9044678B18760014645
:100D600001A8FFF707FE039BA268A360049B039200
:100D7000E268E3609DF81430049223740A4B2C60FF
:100D8000EB600A4BAB6001A8FFF77CFD002229460F
:100D90000748FFF769FC3046FFF774FD1021304625
:100DA00000F083FD07B0F0BDEF090A08BD0C0A088A
:100DB0003F080A0830B5044685B00D46684611461E
:100DC000FFF7BAFD7CB124B228460DB101F050FD09
:100DD000029002A96846ADF80C40FFF71FFE02A87A
:100DE000FFF768FD1DE04FF0010200988DF8084004
:100DF000D0E84F3FA34203D1C0E8412F0029F7D1EB
:100E000002D08DF808300CE010F10C014FF0010316
:100E100018BF0373BFF35F8F043000F8033CFFF784
:100E200071FF01A8FFF79CF905B030BD7047F8B518
:100E3000064615460C468F18BC4206D0336814F897
:100E4000011B9B6830469847F6E72846F8BD00220C
:100E5000007CFFF72FBB0021007CFFF733BB002194
:100E6000007CFFF737BB0021007CFFF73BBB002174
:100E7000007CFFF73FBB10B50446142100F015FDC0
:100E8000204610BD10B5044608464FF47A73A3609F
:100E9000044B0021207461602360FFF73BFB204678
:100EA00010BD00BF342A0A080021007CFFF72ABBCE
:100EB000704710B50446182100F0F7FC204610BD1D
:100EC000F8B50F4600F10806051D002416F8011DAF
:100ED0000A22384600F011F9AE42044407D0002C33
:100EE000F4D02E21384600F0DBF80444EEE720462B
:100EF000F8BD000010B50446044B112240F8043B35
:100F0000002101F084FC204610BD00BF5C2A0A08C5
:100F10000346074A10B543F8042B01F1100251F8BB
:100F2000044B914243F8044BF9D10A781A7010BD72
:100F30005C2A0A08024A4160026004220275704776
:100F40005C2A0A0810B59DF8084044EA032343EAE6
:100F5000024242EA016104234160037510BD0000B2
:100F600037B5044D05609DF818500095FFF7EAFF6E
:100F700003B030BD5C2A0A08014A024B1A60704770
:100F8000DE2A0A08B801002000231A464068FFF74D
:100F90009FBB002202214068FFF7AABB0022114636
:100FA0004068FFF79DBB002211464068FFF7A8BBD1
:100FB00000231A4619464068FFF7AABB00231A46C9
:100FC00019464068FFF7ACBB002281F00101406880
:100FD000FFF7AEBB00224068FFF7BABB0022114604
:100FE0004068FFF7BDBB002211464068FFF7A8BB71
:100FF00070B516468EB0044608A8FFF77BFF112295
:10100000002103A801F003FC304601F04CFC002550
:101010000A4B009581B25B6803AA3046FFF704FBD8
:1010200020B129462046FFF785FF03E003A92046AB
:10103000FFF76EFF20460EB070BD00BF30020020EB
:10104000024B034A1A6000225A607047BC0100201C
:10105000542B0A08F8B506460D468F180024BD42E9
:101060000CD0336815F8011B9B6830469847002860
:1010700001DB0444F3E7002C08BF04462046F8BD1A
:1010800070B505460C46084649B101F00CFC2B68CA
:10109000024621462846BDE87040DB68184770BD0F
:1010A00003689B681847012A98BF0A2230B50B468F
:1010B0008BB000218DF824100DF12304B3FBF2F561
:1010C00005FB1233DBB2092B94BF30333733DBB26D
:1010D000214604F801392B46002DEFD1FFF7D0FF50
:1010E0000BB030BD10B422B90368C9B29B6810BC04
:1010F0001847D2B210BCFFF7D6BFFFF7F3BF10B549
:101100000446FFF7BFFB204610BD00000348002344
:101110008360034A034900F0C3BB00BFC401002041
:1011200084000020FF100A08704710B50446102103
:1011300000F0BBFB204610BD70B504460E46074BC1
:101140000025036040F80C5FFFF76CF9304626710C
:10115000FFF7EAF9A560204670BD00BF882B0A089A
:101160000079FFF7E9B910B504460068FFF708FBFE
:10117000204610BD10B50446006808B1FFF700FB1B
:1011800000232360A360636010BD38B504460D469C
:1011900000680131FFF7FCFA10B184E8210001205A
:1011A00038BD10B50368044613B143688B4207D2BB
:1011B0002046FFF7EAFF20B1A3680BB9226813703D
:1011C000012010BD70B50E46114604461546FFF7C6
:1011D000E8FF18B92046FFF7CDFF09E02A4631465F
:1011E000A560206801F008FB2268A3680021D154A3
:1011F000204670BD38B50023044603604360836019
:1012000003730D4639B1084601F04DFB29460246ED
:101210002046FFF7D7FF204638BD00000EB4FFB5CB
:1012200009AC54F8047B054623463A46052102A83A
:101230000194FFF7B5FA06460B492846FFF7DAFF97
:1012400031462846FFF7ADFF286830B123463A46BD
:10125000711C0194FFF7A4FAA860284604B0BDE809
:10126000F04003B0704700BF122B0A084FF6FF7220
:10127000034B0020187058809A80FFF7DDB900BF3B
:10128000D4010020024B1A68024B1A60704700BF5D
:101290001C000020DC01002070474174704708B535
:1012A000007CFFF789F920EAE07008BD08B5007CF2
:1012B000FFF75AF920EAE07008BD08B5007CFFF797
:1012C00063F930EA200028BF4FF0FF3008BD08B5B1
:1012D000007CFFF751F930EA200028BF4FF0FF30C3
:1012E00008BD007CFFF758B910B50446142100F082
:1012F000DCFA204610BD70B5457C04460E4625B983
:10130000007CFFF759F9002805DD3146207CBDE857
:101310007040FFF721B9284670BD000010B50446A3
:1013200008461146002262604FF47A72A260054AB4
:1013300020742260012262741A46FFF705F92046E4
:1013400010BD00BFC42B0A08007CFFF72DB90000B8
:10135000F8B5194C25684DB98420FEF7A0FE064665
:1013600018B18422294601F052FA2660134D2E68E6
:101370004EB98420FEF793FE074618B18422314609
:1013800001F045FA2F600E4F396811F0010611D1B6
:101390003846FEF788FE68B1226831462B68094856
:1013A000FFF7BCFF3846FEF783FE074A07490548AA
:1013B00000F076FA0348F8BDFC010020F40100209B
:1013C000F8010020E00100208400002099120A08A2
:1013D00041747047704708B50021007CFFF70CF995
:1013E00030EA200028BF4FF0FF3008BD08B50121CA
:1013F000007CFFF701F930EA200028BF4FF0FF30F2
:1014000008BD08B5007CFFF7EFF820EAE07008BDE2
:1014100008B5007CFFF7E0F820EAE07008BD007C2A
:10142000FFF7FAB810B50446142100F03EFA204642
:1014300010BD38B50446007C0D46FFF7D5F80028EE
:1014400001DC607C28B12946207CFFF7DDF820EA2A
:10145000E07038BD10B50446002363604FF47A7322
:10146000A360054B08462360012321746374114671
:10147000FFF7AAF8204610BDF42B0A0810B5044661
:101480001422002101F0C3F9204610BD30B50E4DE5
:1014900087B001A8FFF7F2FF296811F0010410D10D
:1014A0002846FEF700FE60B101AA21460748FFF773
:1014B000D1FF2846FEF7FCFD054A0649034800F027
:1014C000EFF9024807B030BD0002002008020020FA
:1014D00084000020D5130A0810B504461422002108
:1014E00001F095F9204610BD10B50E4C86B001A84C
:1014F000FFF7F2FF2368DB0710D42046FEF7D3FD89
:1015000060B101AA01210848FFF7A4FF2046FEF7B9
:10151000CFFD064A0649044800F0C2F9024806B069
:1015200010BD00BF040200201C0200208400002027
:10153000D5130A08002211464068FFF7E1B8F0B55C
:10154000164689B011220F460446002103A801F077
:101550005EF9304601F0A7F90025009581B27B685D
:1015600003AA3046FFF760F820B129462046FFF76E
:10157000E1FC03E003A92046FFF7CAFC204609B0BE
:10158000F0BD002211464068FFF7DAB8002211468C
:101590004068FFF7E5B800224068FFF7D9B800229D
:1015A00081F001014068FFF7C3B800231A461946CD
:1015B0004068FFF7B5B800231A4619464068FFF7A0
:1015C000A7B8002211464068FFF78AB8002202211E
:1015D0004068FFF78DB800231A464068FFF778B8D7
:1015E000024B04225A60024A1A60704730020020FF
:1015F000242C0A0808B5144B33B1FFF747FF0368E2
:101600001B699847002816DC104B33B1FFF7A0FE8A
:1016100003681B699847002810DC0D4B0BB1AFF332
:1016200000800C4B7BB1FFF75FFF03681B69984795
:10163000002806DC08BDAFF30080E5E7AFF30080CB
:10164000EBE7AFF3008008BD0000000000000000E1
:10165000000000000000000008B5FFF7CBFFFEF718
:10166000F1FE014B186008BD400200200248034A09
:101670000349121A01F0C0B8004002400440024081
:10168000F02C0A0807B5002300931A466FF0770183
:10169000FEF7FCFF03B05DF804FB000007B54388CC
:1016A0000A2B08D0502B09D1094B1B683BB103B062
:1016B0005DF804EB1847FFF7E5FF06E00023009311
:1016C0001A466FF07701FEF7E1FF03B05DF804FB07
:1016D0003802002038B5104C104D2368AB42104B37
:1016E0000CBF012200221A7002D0FFF7BFFF256055
:1016F000FEF7A0FE044601F093F80A4B13B1204612
:10170000AFF3008000210748FEF7DAFFBDE838405C
:1017100000210548FEF7B0BF004002401E1C279A7A
:101720003C020020000000009D160A0810B5044687
:101730000F48FFF715FD28B1A4F10D03022B01D8C6
:10174000002010BD00F052F8FFF7AEFB08B1012CED
:10175000F6D9FFF7FDFDFFF7F7FD18B1A4F112036D
:10176000012BEDD9172C8CBF0020012010BD00BF2C
:1017700074020020172838B504460D460AD8FF2900
:1017800008D0FFF7D3FF28B129462046BDE83840EE
:10179000FEF770BE38BD10B50446FEF773FE043880
:1017A000C0B2012808D92046FFF7C0FF20B120466B
:1017B000BDE81040FEF76EBE002010BD10B5044617
:1017C00009289CBF0A34A4B22046FFF7AFFF50B1EE
:1017D00003212046FEF746FE032804D12046BDE83B
:1017E0001040FEF75FBE002010BD000038B50B4D65
:1017F000296811F001040FD12846FEF754FC58B1B6
:1018000021460748FFF73EFB2846FEF751FC054AF4
:101810000549034800F044F8014838BD440200205F
:1018200048020020840000202D0E0A0813B5084C41
:1018300000231A46194600932046FFF791FB2046E5
:10184000044A054902B0BDE8104000F029B800BFC5
:101850005C02002084000020B10E0A0870B50C4C18
:101860000C4E0D4D00212046FFF766FC20460B4C28
:101870003246294600F014F801212046FFF75CFCAF
:10188000324629462046BDE8704000F009B800BF46
:10189000740200208400002029110A08840200201C
:1018A0000B460146184600F099BFFEF7FABB08B593
:1018B000FEF77EFF244B1A68D0075CBF01221A6036
:1018C000224B1A68D1075CBF01221A60204B1A68AC
:1018D000D2075CBF01221A601E4B1A68D0075CBF9A
:1018E00001221A601C4B1A68D1075CBF01221A60E2
:1018F0001A4B1A68D2075CBF01221A60184B1A688B
:10190000D0075CBF01221A60164B1A68D1075CBF72
:1019100001221A60144B1A68D2075CBF01221A60B8
:10192000124B1A68D0075CBF01221A60104B1A686C
:10193000D1075CBF01221A600E4B1A68D2075CBF48
:1019400001221A60704700BFC0020020BC020020C4
:10195000B8020020B4020020B0020020AC02002037
:10196000A8020020A4020020A00200209C02002067
:101970009802002094020020184B1A68D1075CBF1F
:1019800001221A60164B1A68D2075CBF01221A6046
:10199000144B1A68D0075CBF01221A60124B1A68F8
:1019A000D1075CBF01221A60104B1A68D2075CBFD6
:1019B00001221A600E4B1A68D0075CBF01221A6020
:1019C0000C4B1A68D1075CBF01221A600A4B1A68D7
:1019D000D2075CBF01221A60704700BFE0020020FE
:1019E000DC020020D8020020D4020020D002002017
:1019F000CC020020C8020020C4020020184B1A6844
:101A0000D1075CBF01221A60164B1A68D2075CBF6F
:101A100001221A60144B1A68D0075CBF01221A60B9
:101A2000124B1A68D1075CBF01221A60104B1A686A
:101A3000D2075CBF01221A600E4B1A68D0075CBF48
:101A400001221A600C4B1A68D1075CBF01221A6090
:101A50000A4B1A68D2075CBF01221A60704700BFA8
:101A600000030020FC020020F8020020F402002005
:101A7000F0020020EC020020E8020020E402002036
:101A8000244B1A68D0075CBF01221A60224B1A68E7
:101A9000D1075CBF01221A60204B1A68D2075CBFD5
:101AA00001221A601E4B1A68D0075CBF01221A601F
:101AB0001C4B1A68D1075CBF01221A601A4B1A68C6
:101AC000D2075CBF01221A60184B1A68D0075CBFAE
:101AD00001221A60164B1A68D1075CBF01221A60F6
:101AE000144B1A68D2075CBF01221A60124B1A68A5
:101AF000D0075CBF01221A60104B1A68D1075CBF87
:101B000001221A600E4B1A68D2075CBF01221A60CC
:101B1000704700BF300300202C0300202803002062
:101B200024030020200300201C03002018030020B1
:101B300014030020100300200C03002008030020E1
:101B40000403002081F0004102E000BF83F0004365
:101B500030B54FEA41044FEA430594EA050F08BF48
:101B600090EA020F1FBF54EA000C55EA020C7FEA0C
:101B7000645C7FEA655C00F0E2804FEA5454D4EB89
:101B80005555B8BF6D420CDD2C4480EA020281EA53
:101B9000030382EA000083EA010180EA020281EA8B
:101BA0000303362D88BF30BD11F0004F4FEA0131DD
:101BB0004FF4801C4CEA113102D0404261EB4101EC
:101BC00013F0004F4FEA03334CEA133302D0524272
:101BD00063EB430394EA050F00F0A780A4F101042E
:101BE000D5F1200E0DDB02FA0EFC22FA05F2801868
:101BF00041F1000103FA0EF2801843FA05F359414E
:101C00000EE0A5F120050EF1200E012A03FA0EFCCC
:101C100028BF4CF0020C43FA05F3C01851EBE371F6
:101C200001F0004507D54FF0000EDCF1000C7EEB13
:101C300000006EEB0101B1F5801F1BD3B1F5001F51
:101C40000CD349085FEA30004FEA3C0C04F1010470
:101C50004FEA445212F5800F80F09A80BCF1004F99
:101C600008BF5FEA500C50F1000041EB045141EA1B
:101C7000050130BD5FEA4C0C404141EB010111F41C
:101C8000801FA4F10104E9D191F0000F04BF0146C7
:101C90000020B1FA81F308BF2033A3F10B03B3F1A5
:101CA00020020CDA0C3208DD02F1140CC2F10C0235
:101CB00001FA0CF021FA02F10CE002F11402D8BF93
:101CC000C2F1200C01FA02F120FA0CFCDCBF41EA5F
:101CD0000C019040E41AA2BF01EB0451294330BD2E
:101CE0006FEA04041F3C1CDA0C340EDC04F114040B
:101CF000C4F1200220FA04F001FA02F340EA0300E2
:101D000021FA04F345EA030130BDC4F10C04C4F127
:101D1000200220FA02F001FA04F340EA0300294607
:101D200030BD21FA04F0294630BD94F0000F83F451
:101D3000801306BF81F480110134013D4EE77FEA34
:101D4000645C18BF7FEA655C29D094EA050F08BF80
:101D500090EA020F05D054EA000C04BF1946104661
:101D600030BD91EA030F1EBF0021002030BD5FEAA5
:101D7000545C05D14000494128BF41F0004130BDCD
:101D800014F580043CBF01F5801130BD01F0004521
:101D900045F0FE4141F470014FF0000030BD7FEA94
:101DA000645C1ABF194610467FEA655C1CBF0B468F
:101DB000024650EA013406BF52EA033591EA030FA6
:101DC00041F4002130BD00BF90F0000F04BF00219E
:101DD000704730B54FF4806404F132044FF00005D1
:101DE0004FF0000150E700BF90F0000F04BF00214A
:101DF000704730B54FF4806404F1320410F00045B0
:101E000048BF40424FF000013EE700BF42004FEAAA
:101E1000E2014FEA31014FEA02701FBF12F07F4327
:101E200093F07F4F81F06051704792F0000F14BF24
:101E300093F07F4F704730B54FF4607401F0004568
:101E400021F0004120E700BF50EA010208BF7047BF
:101E500030B54FF000050AE050EA010208BF7047B4
:101E600030B511F0004502D5404261EB41014FF41D
:101E7000806404F132045FEA915C3FF4DCAE4FF021
:101E800003025FEADC0C18BF03325FEADC0C18BF08
:101E9000033202EBDC02C2F1200300FA03FC20FA59
:101EA00002F001FA03FE40EA0E0021FA02F11444A6
:101EB000C1E600BF70B54FF0FF0C4CF4E06C1CEABB
:101EC00011541DBF1CEA135594EA0C0F95EA0C0F30
:101ED00000F0DEF82C4481EA030621EA4C5123EAA3
:101EE0004C5350EA013518BF52EA033541F48011D2
:101EF00043F4801338D0A0FB02CE4FF00005E1FB85
:101F000002E506F00042E0FB03E54FF00006E1FBCE
:101F100003569CF0000F18BF4EF0010EA4F1FF0411
:101F2000B6F5007F64F5407404D25FEA4E0E6D4151
:101F300046EB060642EAC62141EA55514FEAC52062
:101F400040EA5E504FEACE2EB4F1FD0C88BFBCF5DE
:101F5000E06F1ED8BEF1004F08BF5FEA500E50F18F
:101F6000000041EB045170BD06F0004646EA010155
:101F700040EA020081EA0301B4EB5C04C2BFD4EB87
:101F80000C0541EA045170BD41F480114FF0000E80
:101F9000013C00F3AB8014F1360FDEBF002001F0EE
:101FA000004170BDC4F10004203C35DA0C341BDC68
:101FB00004F11404C4F1200500FA05F320FA04F03A
:101FC00001FA05F240EA020001F0004221F000416E
:101FD00010EBD37021FA04F642EB06015EEA430EE1
:101FE00008BF20EAD37070BDC4F10C04C4F1200511
:101FF00000FA04F320FA05F001FA04F240EA0200C4
:1020000001F0004110EBD37041F100015EEA430E94
:1020100008BF20EAD37070BDC4F1200500FA05F2B4
:102020004EEA020E20FA04F301FA05F243EA020333
:1020300021FA04F001F0004121FA04F220EA020042
:1020400000EBD3705EEA430E08BF20EAD37070BD88
:1020500094F0000F0FD101F00046400041EB010168
:1020600011F4801F08BF013CF7D041EA060195F04A
:10207000000F18BF704703F00046520043EB030304
:1020800013F4801F08BF013DF7D043EA06037047F1
:1020900094EA0C0F0CEA135518BF95EA0C0F0CD0FC
:1020A00050EA410618BF52EA4306D1D181EA030142
:1020B00001F000414FF0000070BD50EA410606BF3C
:1020C0001046194652EA430619D094EA0C0F02D181
:1020D00050EA013613D195EA0C0F05D152EA0336C6
:1020E0001CBF104619460AD181EA030101F00041E4
:1020F00041F0FE4141F470014FF0000070BD41F02D
:10210000FE4141F4780170BD70B54FF0FF0C4CF406
:10211000E06C1CEA11541DBF1CEA135594EA0C0F25
:1021200095EA0C0F00F0A7F8A4EB050481EA030E72
:1021300052EA03354FEA013100F088804FEA033359
:102140004FF0805545EA131343EA12634FEA022227
:1021500045EA111545EA10654FEA00260EF00041E8
:102160009D4208BF964244F1FD0404F5407402D23A
:102170005B084FEA3202B61A65EB03055B084FEACB
:1021800032024FF480104FF4002CB6EB020E75EBC8
:10219000030E22BFB61A754640EA0C005B084FEAF0
:1021A0003202B6EB020E75EB030E22BFB61A75466D
:1021B00040EA5C005B084FEA3202B6EB020E75EBB8
:1021C000030E22BFB61A754640EA9C005B084FEA30
:1021D0003202B6EB020E75EB030E22BFB61A75463D
:1021E00040EADC0055EA060E18D04FEA051545EA2C
:1021F00016754FEA06164FEAC30343EA52734FEAD5
:10220000C2025FEA1C1CC0D111F4801F0BD141EA4D
:1022100000014FF000004FF0004CB6E711F4801FB2
:1022200004BF01430020B4F1FD0C88BFBCF5E06F92
:102230003FF6AFAEB5EB030C04BFB6EB020C5FEAA2
:10224000500C50F1000041EB045170BD0EF0004EF7
:102250004EEA113114EB5C04C2BFD4EB0C0541EA29
:10226000045170BD41F480114FF0000E013C90E626
:1022700045EA060E8DE60CEA135594EA0C0F08BFEA
:1022800095EA0C0F3FF43BAF94EA0C0F0AD150EAE9
:1022900001347FF434AF95EA0C0F7FF425AF10467C
:1022A00019462CE795EA0C0F06D152EA03353FF4A4
:1022B000FDAE1046194622E750EA410618BF52EA21
:1022C00043067FF4C5AE50EA41047FF40DAF52EAF5
:1022D00043057FF4EBAE12E74FF0FF3C06E000BF92
:1022E0004FF0010C02E000BF4FF0010C4DF804CD9F
:1022F0004FEA410C7FEA6C5C4FEA430C18BF7FEA5F
:102300006C5C1BD001B050EA410C0CBF52EA430C8C
:1023100091EA030F02BF90EA020F0020704710F10C
:10232000000F91EA030F58BF994208BF90422CBF9B
:10233000D8176FEAE37040F0010070474FEA410C94
:102340007FEA6C5C02D150EA013C07D14FEA430CB2
:102350007FEA6C5CD6D152EA033CD3D05DF8040B23
:10236000704700BF8446104662468C461946634655
:1023700000E000BF01B5FFF7B7FF002848BF10F12C
:10238000000F01BD4DF808EDFFF7F4FF0CBF012071
:1023900000205DF808FB00BF4DF808EDFFF7EAFFED
:1023A00034BF012000205DF808FB00BF4DF808EDA8
:1023B000FFF7E0FF94BF012000205DF808FB00BF9D
:1023C0004DF808EDFFF7CEFF94BF012000205DF827
:1023D00008FB00BF4DF808EDFFF7C4FF34BF012034
:1023E00000205DF808FB00BF4FEA4102B2F1E04374
:1023F00024BFB3F5001CDCF1FE5C0DD901F0004CEC
:102400004FEAC0024CEA5070B2F1004F40EB83003B
:1024100008BF20F00100704711F0804F21D113F167
:102420003872BCBF01F00040704741F480114FEAA0
:102430005252C2F11802C2F1200C10FA0CF320FA29
:1024400002F018BF40F001004FEAC1234FEAD32346
:1024500003FA0CFC40EA0C0023FA02F34FEA4303B0
:10246000CCE77FEA625307D150EA01331EBF4FF039
:10247000FE4040F44000704701F0004040F0FE4054
:1024800040F40000704700BF80F0004002E000BF51
:1024900081F0004142001FBF5FEA410392EA030F4F
:1024A0007FEA226C7FEA236C6AD04FEA1262D2EB99
:1024B0001363C1BFD218414048404140B8BF5B429E
:1024C000192B88BF704710F0004F40F4000020F037
:1024D0007F4018BF404211F0004F41F4000121F04D
:1024E0007F4118BF494292EA030F3FD0A2F1010297
:1024F00041FA03FC10EB0C00C3F1200301FA03F1D5
:1025000000F0004302D5494260EB4000B0F5000FF7
:1025100013D3B0F1807F06D340084FEA310102F1B6
:102520000102FE2A51D2B1F1004F40EBC25008BF68
:1025300020F0010040EA03007047490040EB000032
:1025400010F4000FA2F10102EDD1B0FA80FCACF161
:10255000080CB2EB0C0200FA0CF0AABF00EBC25060
:1025600052421843BCBFD0401843704792F0000F4E
:1025700081F4000106BF80F400000132013BB5E7A1
:102580004FEA41037FEA226C18BF7FEA236C21D017
:1025900092EA030F04D092F0000F08BF084670477C
:1025A00090EA010F1CBF0020704712F07F4F04D14A
:1025B000400028BF40F00040704712F100723CBF5D
:1025C00000F50000704700F0004343F0FE4040F487
:1025D000000070477FEA226216BF08467FEA236345
:1025E0000146420206BF5FEA412390EA010F40F430
:1025F000800070474FF0000304E000BF10F000437C
:1026000048BF40425FEA000C08BF704743F0964362
:1026100001464FF000001CE050EA010208BF70477D
:102620004FF000030AE000BF50EA010208BF704704
:1026300011F0004302D5404261EB41015FEA010C19
:1026400002BF84460146002043F0B64308BFA3F111
:102650008053A3F50003BCFA8CF2083AA3EBC253F3
:1026600010DB01FA02FC634400FA02FCC2F1200212
:10267000BCF1004F20FA02F243EB020008BF20F049
:102680000100704702F1200201FA02FCC2F12002AF
:1026900050EA4C0021FA02F243EB020008BF20EAA4
:1026A000DC7070474FF0FF3C06E000BF4FF0010CBC
:1026B00002E000BF4FF0010C4DF804CD4FEA40029C
:1026C0004FEA41037FEA226C18BF7FEA236C11D0E6
:1026D00001B052EA530C18BF90EA010F58BFB2EB99
:1026E000030088BFC81738BF6FEAE17018BF40F019
:1026F000010070477FEA226C02D15FEA402C05D1CD
:102700007FEA236CE4D15FEA412CE1D05DF8040B51
:10271000704700BF844608466146FFE70FB5FFF7E4
:10272000C9FF002848BF10F1000F0FBD4DF808ED9C
:10273000FFF7F4FF0CBF012000205DF808FB00BF8D
:102740004DF808EDFFF7EAFF34BF012000205DF8E7
:1027500008FB00BF4DF808EDFFF7E0FF94BF012034
:1027600000205DF808FB00BF4DF808EDFFF7D2FF31
:1027700094BF012000205DF808FB00BF4DF808ED74
:10278000FFF7C8FF34BF012000205DF808FB00BF41
:102790004FEA4002B2F1FE4F0FD34FF09E03B3EB6E
:1027A00012620DD94FEA002343F0004310F0004FAE
:1027B00023FA02F018BF404270474FF00000704704
:1027C00012F1610F01D1420205D110F0004008BFA3
:1027D0006FF0004070474FF00000704710B5054C97
:1027E00013462CB10A4601460220AFF3008010BD0B
:1027F000204610BD0000000010B5431E0A4491425F
:1028000004D011F8014B03F8014FF8E710BD03465F
:102810000244934202D003F8011BFAE7704700001C
:1028200038B5124B05461C68A36BD3B91820FDF7C9
:102830009FFF43F20E33A06303804AF6CD334380FB
:1028400041F2342383804EF26D63C3804DF6EC6316
:102850000381052343810B23838101220023C0E9E7
:102860000423A36B00221D615A6138BD8000002043
:10287000024B0146186800F003B800BF800000203A
:1028800070B5064608460C4600F00DF8451C294672
:102890003046FDF795FF064618B12A462146FFF758
:1028A000ABFF304670BD034613F8012B002AFBD165
:1028B000181A01387047000021000A0861000A0850
:1028C0008D000A0891000A0800000000252E3266DB
:1028D0000070696E670073796E7468696E67735F04
:1028E000696E7075745F616E616C6F675F300073E5
:1028F000796E7468696E67735F696E7075745F6115
:102900006E616C6F675F310073796E7468696E67B2
:10291000735F696E7075745F616E616C6F675F3253
:102920000073796E7468696E67735F696E70757431
:102930005F616E616C6F675F330073796E74686995
:102940006E67735F696E7075745F616E616C6F67DF
:102950005F340073796E7468696E67735F696E7057
:1029600075745F616E616C6F675F350073796E744B
:1029700068696E67735F696E7075745F64696769B3
:1029800074616C5F300073796E7468696E67735F31
:10299000696E7075745F6469676974616C5F31003A
:1029A00073796E7468696E67735F696E7075745F52
:1029B0006469676974616C5F320073796E74686909
:1029C0006E67735F696E7075745F6469676974615F
:1029D0006C5F330073796E7468696E67735F696EDC
:1029E0007075745F6469676974616C5F34007379D2
:1029F0006E7468696E67735F696E7075745F646921
:102A0000676974616C5F35004F6666004F6E000049
:102A1000000000000000000067080A086D080A08AE
:102A2000C3080A087B080A0869080A0800000000B1
:102A3000000000002D0E0A08770E0A084F0E0A0843
:102A40002F0E0A08570E0A085F0E0A08670E0A08BA
:102A50006F0E0A080000000000000000C10E0A0806
:102A6000B10E0A08B30E0A086261756400536572FC
:102A700069616C0055534253657269616C31007431
:102A800079706500706172616D00636D64006964E6
:102A900000686E64007374726D0066696C74006C1B
:102AA000766C0061646448616E646C657200726586
:102AB0006D6F766548616E646C657200656E756DEC
:102AC00048616E646C657273004A534F4E53747262
:102AD00065616D4C6F6748616E646C657200617012
:102AE0007000253031307520005D20002564002CF9
:102AF000200028293A2000205B00636F6465203D98
:102B0000200025690064657461696C73203D2000B4
:102B10000D0A006C6E00666E00636F64650064658C
:102B20007461696C006E6F6E65007472616365003C
:102B3000696E666F007761726E006572726F720007
:102B400070616E696300616C6C0000000000000041
:102B500000000000890F0A08930F0A089D0F0A0859
:102B6000A70F0A08B10F0A08BD0F0A08C90F0A0803
:102B7000D50F0A08DD0F0A08E70F0A08F10F0A0847
:102B8000000000000000000029110A082B110A08AB
:102B90005A00252B3033643A253032750025592DE3
:102BA000256D2D25645425483A254D3A2553257A1F
:102BB0000061736374696D6500000000000000002F
:102BC0000000000099120A08E9120A08F7120A0820
:102BD00055100A08AD120A08CF120A08BB120A08DB
:102BE000E3120A089B120A089F120A08000000005C
:102BF00000000000D5130A0825140A0833140A0837
:102C000055100A0811140A08D7130A08ED130A0808
:102C10001F140A0803140A08D1130A080000000050
:102C200000000000D7150A08CD150A08C3150A08C8
:102C300035150A08B7150A08AB150A089F150A08C2
:102C400097150A088D150A0883150A083F150A0802
:102C50000000000000000000000000000000000074
:102C60000000000000000000000000000000000064
:102C70000000000000000000000000000000000054
:102C80000000000000000000000000000000000044
:102C90000000000000000000000000000000000034
:102CA0000000000000000000000000000000000024
:102CB00043000000E5020A08790F0A0841100A08DB
:102CC0000D110A086D120A0885120A08E1150A0892
:102CD0002D180A085D180A08B5180A0879190A0893
:102CE000FD190A08811A0A0800000000000000000F
:042CF00000000000E0
:102CF400CDCC4C3D0000010002000300040005009F
:102D04000A000B000C000D000E000F00B12B0A0886
:102D140000000000502C0A08702C0A08902C0A08A5
:102D2400000000000000000000000000000000009F
:102D3400B02C0A08000000000000000000000000A1
:102D4400000000000000000000000000000000007F
:102D5400000000000000000000000000000000006F
:102D6400000000000000000000000000000000005F
:042D7400200000201B
:102D7800FFFFFFFF00000102030405060708090A18
:102D88000B0C0D0E0F101112131415161718191A13
:082D98001B1C1D1E1F2028005A
:042DA000785634121B
:04000005080A0020C5
:00000001FF
